:02000004F90001
:1000000097110000938181DD138181A21705000003
:100010001305C55597050000938545551386C18185
:1000200063FCC5008322050023A05500130545008D
:1000300093854500E3E8C5FE1385C18193858182E0
:100040006378B5002320050013054500E36CB5FE79
:10005000EF000001EF0080496F00000067800000A2
:10006000130101FF23248100232021011704000034
:100070001304C44F170900001309494F330989407D
:10008000232611002322910013592940630E0900F1
:100090009304000083270400938414001304440095
:1000A000E7800700E31899FE170400001304044CCE
:1000B000170900001309894B330989401359294056
:1000C000630E090093040000832704009384140046
:1000D00013044400E7800700E31899FE8320C10061
:1000E000032481008324410003290100130101013D
:1000F0006780000003254500135505011375F50FB2
:1001000067800000130101FF2326110023248100D2
:1001100023229100130405009384050013050400B5
:10012000EFF05FFDE30C05FE232094008320C10067
:100130000324810083244100130101016780000032
:10014000130101FF2326110093050500370501F86F
:10015000EFF05FFB8320C100130101016780000005
:10016000130101FF2326110023248100130405003D
:10017000034504006308050013041400EFF05FFC5E
:100180006FF01FFF8320C1000324810013010101D0
:1001900067800000130101FF232611002324810042
:1001A00023229100930405001304C0016F00400254
:1001B000B3D7840013F7F700B70700F99387875682
:1001C000B387E70003C50700EFF09FF71304C4FFF0
:1001D000E35004FE8320C1000324810083244100F6
:1001E0001301010167800000130101FF23261100A4
:1001F0002324810023229100930405001304C001ED
:100200006F004002B3D7840013F7F700B70700F977
:100210009387C757B387E70003C50700EFF05FF286
:100220001304C4FFE35004FE8320C10003248100B3
:10023000832441001301010167800000130101FFC5
:10024000232611001375F50FEFF09FEF8320C100F7
:100250001301010167800000130101FF2326110033
:10026000EFF01FF08320C10013010101678000003F
:10027000130101FD2326110223248102232291026E
:100280009304050063460500130401006F00C002DB
:100290001305D002EFF09FFAB30490406FF0DFFE39
:1002A0001307A000B3E7E402938707032300F400D9
:1002B000B3C4E40213041400E39404FE93070100A2
:1002C000E300F4FE6F0000011304F4FF0345040093
:1002D000EFF0DFF693070100E318F4FE8320C1027C
:1002E000032481028324410213010103678000007B
:1002F000130101FF2326110013070000930770006C
:1003000063C0E70293162700930700FFB397D70057
:10031000B377F50063860700130717006FF01FFE21
:10032000EFF09FEC8320C100130101016780000002
:10033000130101FF2326110013070000930770002B
:1003400063C0E70293162700930700FFB397D70017
:10035000B377F50063860700130717006FF01FFEE1
:10036000EFF05FE38320C10013010101678000000B
:10037000130101FC232E1100232C8100232A91005C
:10038000930405002322B1022324C1022326D102B3
:100390002328E102232AF102232C0103232E110337
:1003A000930741022326F100130400006F00C001EF
:1003B0008327C100138747002326E10003A5070018
:1003C000EFF0DFE713041400B387840003C50700D0
:1003D0006302050C930750026306F506EFF01FE673
:1003E0006FF05FFE8327C100138747002326E100DB
:1003F00003A50700EFF05FE66FF0DFFC8327C10085
:10040000138747002326E10003A50700EFF05FE60E
:100410006FF05FFB8327C100138747002326E100AD
:1004200003A50700EFF0DFF06FF0DFF98327C100CD
:10043000138747002326E10003A50700EFF05FEBD9
:100440006FF05FF813041400B387840083C70700BC
:10045000E38A07F613073006E38CE7F41307300747
:10046000E382E7F813074006E38AE7F813078005FD
:10047000E382E7FA13078007E38AE7FA13076006C7
:10048000E392E7FC370500F913050559EFF0DFDCCF
:100490006FF05FF38320C1010324810183244101B4
:1004A0001301010467800000032505006780000038
:1004B00083A705002322F5006780000083A70500BD
:1004C0002326F500678000002328B5006780000020
:1004D000232AB50067800000130101FF23261100C5
:1004E00013854180EFF0DFE86F000000B70710F8D8
:1004F00003A74700930730006300F704B70710F81D
:1005000003A74700930710006300F704B70710F82C
:1005100003A74700930720006300F704B70710F80C
:1005200083A74700E39407FCB70710F813074000C0
:1005300023A0E7006FF09FFBB70710F813078000B8
:1005400023A0E7006FF09FFBB70710F81307200008
:1005500023A0E7006FF09FFBB70710F81307100008
:0805600023A0E7006FF09FFBF0
:1005680030313233343536373839414243444546E1
:1005780000000000303132333435363738396162A3
:1005880063646566000000003C466C6F6174696EC8
:100598006720706F696E74207072696E74696E6717
:1005A800206E6F7420656E61626C652E20506C65DC
:1005B80061736520456E61626C65206974206174A1
:1005C800206273702E682066697273742E2E2E3E18
:1005D800000000004661696C656421200D0A000076
:0A05E8000000000000000000000009
:04000005F9000000FE
:00000001FF
