:02000004F90001
:1000000097110000938181F6138181A217050000EA
:100010001305056B970500009385856A1386C181DA
:1000200063FCC5008322050023A05500130545008D
:1000300093854500E3E8C5FE1385C18193858182E0
:100040006378B5002320050013054500E36CB5FE79
:10005000EF000001EF0000516F000000678000001A
:10006000130101FF23248100232021011704000034
:1000700013040465170900001309896433098940D2
:10008000232611002322910013592940630E0900F1
:100090009304000083270400938414001304440095
:1000A000E7800700E31899FE170400001304446179
:1000B000170900001309C960330989401359294001
:1000C000630E090093040000832704009384140046
:1000D00013044400E7800700E31899FE8320C10061
:1000E000032481008324410003290100130101013D
:1000F0006780000003254500135505011375F50FB2
:1001000067800000032545001355850167800000C6
:10011000130101FF232611002324810023229100D3
:10012000130405009384050013050400EFF09FFC01
:10013000E30C05FE232094008320C10003248100EA
:10014000832441001301010167800000130101FFB6
:100150002326110023248100130405001305040045
:10016000EFF05FFAE30C05FE032504001375F50FAD
:100170008320C10003248100130101016780000076
:10018000B7470F0093870724B3D5F502B7C7000020
:10019000938787FF3306F600832706003385A50281
:1001A0003305F50083270600B307F540E3DC07FEBF
:1001B00067800000130101FF23261100930505004D
:1001C000370501F8EFF0DFF48320C10013010101CE
:1001D00067800000130101FF232611002324810002
:1001E000130405000345040063080500130414000C
:1001F000EFF05FFC6FF01FFF8320C100032481003C
:100200001301010167800000130101FF2326110083
:100210002324810023229100930405001304C001CC
:100220006F004002B3D7840013F7F700B70700F957
:100230009387C76BB387E70003C50700EFF09FF70D
:100240001304C4FFE35004FE8320C1000324810093
:10025000832441001301010167800000130101FFA5
:1002600023261100232481002322910093040500FA
:100270001304C0016F004002B3D7840013F7F700E6
:10028000B70700F99387076DB387E70003C5070039
:10029000EFF05FF21304C4FFE35004FE8320C100BB
:1002A00003248100832441001301010167800000C1
:1002B000130101FF232611001375F50FEFF09FEFD7
:1002C0008320C1001301010167800000130101FFB9
:1002D00023261100EFF01FF08320C100130101015C
:1002E00067800000130101FD2326110223248102EF
:1002F00023229102930405006346050013040100C4
:100300006F00C0021305D002EFF09FFAB3049040D3
:100310006FF0DFFE1307A000B3E7E4029387070343
:100320002300F400B3C4E40213041400E39404FEB5
:1003300093070100E300F4FE6F0000011304F4FFD3
:1003400003450400EFF0DFF693070100E318F4FE25
:100350008320C1020324810283244102130101038B
:1003600067800000130101FF23261100130700001E
:100370009307700063C0E70293162700930700FFFE
:10038000B397D700B377F50063860700130717000C
:100390006FF01FFEEFF09FEC8320C10013010101FD
:1003A00067800000130101FF2326110013070000DE
:1003B0009307700063C0E70293162700930700FFBE
:1003C000B397D700B377F5006386070013071700CC
:1003D0006FF01FFEEFF05FE38320C1001301010106
:1003E00067800000130101FC232E1100232C8100E3
:1003F000232A9100930405002322B1022324C10281
:100400002326D1022328E102232AF102232C01030F
:10041000232E1103930741022326F1001304000049
:100420006F00C0018327C100138747002326E10026
:1004300003A50700EFF0DFE713041400B38784007F
:1004400003C507006302050C930750026306F50617
:10045000EFF01FE66FF05FFE8327C10013874700B0
:100460002326E10003A50700EFF05FE66FF0DFFC55
:100470008327C100138747002326E10003A5070057
:10048000EFF05FE66FF05FFB8327C1001387470043
:100490002326E10003A50700EFF0DFF06FF0DFF99E
:1004A0008327C100138747002326E10003A5070027
:1004B000EFF05FEB6FF05FF813041400B387840074
:1004C00083C70700E38A07F613073006E38CE7F4D7
:1004D00013073007E382E7F813074006E38AE7F8DB
:1004E00013078005E382E7FA13078007E38AE7FA38
:1004F00013076006E392E7FC370500F91305456E24
:10050000EFF0DFDC6FF05FF38320C1010324810192
:1005100083244101130101046780000003250500C5
:100520006780000083A705002322F5006780000094
:1005300083A705002326F500678000002328B50067
:1005400067800000232AB50067800000130101FFC7
:1005500023261100370500F913050573EFF09FE816
:100560006F000000130101FF2326110023248100E6
:10057000370500F91305C573EFF0DFE66F00400A99
:10058000B70710F823A007003706B0F8B7353101D8
:10059000938505D03715000013058538EFF05FBE51
:1005A000370500F91305C573EFF0DFE36F0040096D
:1005B000B70710F81307100023A0E7003706B0F8BC
:1005C000B7353101938505D03715000013058538FF
:1005D000EFF01FBB370500F913058574EFF09FE0BE
:1005E0006F008006B70710F81307200023A0E7006C
:1005F0003706B0F8B7353101938505D037150000BF
:1006000013058538EFF0DFB7370500F91305457599
:10061000EFF05FDD6F00C003930740036308F4064B
:10062000370501F8EFF01FAEE30C05FE370501F8C2
:10063000EFF0DFB11304050093070003E302F5F4C4
:1006400093071003E306F4F693072003E30CF4F892
:1006500093073003E312F4FCB70710F813074000C8
:1006600023A0E7003706B0F8B7353101938505D0F0
:100670003715000013058538EFF09FB0370500F9F6
:1006800013050576EFF01FD66FF01FF9B70710F8C6
:100690001307800023A0E7003706B0F8B735310113
:1006A000938505D03715000013058538EFF05FAD51
:0C06B00013854180EFF01FD36FF09FF620
:1006BC00303132333435363738394142434445468C
:1006CC00000000003031323334353637383961624E
:1006DC0063646566000000003C466C6F6174696E73
:1006EC006720706F696E74207072696E74696E67C2
:1006FC00206E6F7420656E61626C652E20506C6587
:10070C0061736520456E61626C652069742061744B
:10071C00206273702E682066697273742E2E2E3EC2
:10072C00000000004661696C656421200D0A000020
:10073C004C454453204F46460D0A00004C4544316D
:10074C00204F4E0D0A0000004C454432204F4E0DF8
:10075C000A0000004C454433204F4E0D0A000000A7
:10076C004C454434204F4E0D0A00000000000000A0
:06077C0000000000000077
:04000005F9000000FE
:00000001FF
